:020000040000FA
:0400000007EF00F016
:0A0008005382C6ED1BF074EF20F0E8
:1008000000414243443336392332353830313437AE
:100810002A0000004B444947495445204120534594
:100820004E48413A20004E414F20454E434F4E54D2
:10083000524144410053454E484120415455414C9A
:100840003A20004E4F56412053454E48413A200031
:1008500054454D503A202564DF430053454D204117
:10086000434553534F00434F4E43454449444F0083
:10087000414C54455241444100524C31202D2000FE
:10088000524C32202D200053454E4841007F282AEB
:0F08900029002823297E004F4646004F4E0000C6
:1008A00000016351800B6C6F635163256E6F62AF03
:1008B0005CEF04F05EEF04F05FEF04F06E816E51C8
:1008C000D8B465EF04F067EF04F07CEF04F06E2914
:1008D000D8A46DEF04F06FEF04F077EF04F0000E92
:1008E000606F000E616F000E626F000E636F628FAB
:1008F000000E636F84EF04F0000E606F000E616FF6
:10090000000E626F000E636F6751800B6D6F6C514C
:100910006D19D8B48EEF04F090EF04F091EF04F06D
:100920006C8D675167256D6F66AF99EF04F09BEF93
:1009300004F09CEF04F06D816D51D8B4A2EF04F087
:10094000A4EF04F0B9EF04F06D29D8A4AAEF04F0E5
:10095000ACEF04F0B4EF04F0000E646F000E656FAE
:10096000000E666F000E676F668F000E676FC1EF37
:1009700004F0000E646F000E656F000E666F000ECF
:10098000676F6E516D5DD8B0C8EF04F0CAEF04F028
:10099000F1EF04F06CADCFEF04F0D1EF04F0D3EF42
:1009A00004F0800E6C1B6EC06FF06DC06EF06FC0F7
:1009B0006DF060C06FF064C060F06FC064F061C043
:1009C0006FF065C061F06FC065F062C06FF066C027
:1009D00062F06FC066F063C06FF067C063F06FC015
:1009E00067F0000E6F6F6E516DC068F0696B685FE5
:1009F000000E695B69BF06EF05F0695109E11A0E47
:100A0000685DD8A006EF05F008EF05F03FEF05F0B0
:100A10006051611162116311D8A411EF05F014EF58
:100A200005F0010E15EF05F0000E6F6F000E606F00
:100A3000000E616F000E626F000E636F6DC06EF08E
:100A400048EF05F06FA127EF05F029EF05F02FEF34
:100A500005F0D8906F3101096F6F31EF05F0D89034
:100A60006F3360A136EF05F038EF05F039EF05F090
:100A70006F8F633563336233613360336E2B6D5137
:100A80006E5DD8A046EF05F048EF05F022EF05F0C7
:100A90006CBD4DEF05F04FEF05F08FEF05F06E5197
:100AA000D8A455EF05F057EF05F061EF05F0000E03
:100AB000606F000E616F000E626F000E636FB0EF2B
:100AC00006F06451602765516123665162236751C6
:100AD000632363A16EEF05F070EF05F01CEF06F0E5
:100AE0006FA175EF05F077EF05F07DEF05F0D89079
:100AF0006F3101096F6F7FEF05F0D8906F3360A100
:100B000084EF05F086EF05F087EF05F06F8F633512
:100B100063336233613360336E2B1CEF06F0645134
:100B2000605D65516159665162596351800A686F11
:100B30006751800A6859D8B0A0EF05F0A2EF05F020
:100B4000CDEF05F06051645D686F61516559696F63
:100B5000625166596A6F635167596B6FFF0E682562
:100B6000606FFF0E6921616FFF0E6A21626FFF0ED9
:100B70006B21636F800E6C1B6F6D6F51D8A4C3EF38
:100B800005F0C5EF05F0D5EF05F0010E6027000E6A
:100B9000612362236323D5EF05F06451605F6551E3
:100BA000615B6651625B6751635B60516111621109
:100BB0006311D8A4DEEF05F0E0EF05F015EF06F0C5
:100BC0006F51D8A4E6EF05F0E8EF05F015EF06F059
:100BD000000E606F000E616F000E626F000E636F9B
:100BE000B0EF06F0D89060376137623763376FAF88
:100BF000FCEF05F0FEEF05F0FFEF05F060816FA15F
:100C000004EF06F006EF06F00AEF06F0D8806F3723
:100C10000CEF06F0D8906F376E51D8B412EF06F093
:100C200014EF06F015EF06F06E0762AF1AEF06F04C
:100C30001CEF06F0F2EF05F0000E6D6F6FAF23EFC3
:100C400006F025EF06F03DEF06F06FC068F07F0E6E
:100C50006817D8B42EEF06F030EF06F034EF06F048
:100C6000010E6D6F3DEF06F060A139EF06F03BEF2E
:100C700006F03DEF06F030EF06F06D51D8B443EFCB
:100C800006F045EF06F070EF06F0010E6027000E4B
:100C900061236223632363A150EF06F052EF06F055
:100CA00070EF06F060C068F061C069F062C06AF081
:100CB00063C06BF06B356B336A336933683368C07C
:100CC00060F069C061F06AC062F06BC063F06E29C9
:100CD000D8B46DEF06F06FEF06F070EF06F06E2BF4
:100CE0006E29D8B476EF06F078EF06F080EF06F0C4
:100CF0006E51D8A47EEF06F080EF06F092EF06F07A
:100D0000000E606F000E616F000E626F000E636F69
:100D10006E51D8A48EEF06F090EF06F092EF06F039
:100D2000000E6C6F6EA197EF06F099EF06F09CEF46
:100D300006F0628F9DEF06F0629FD8906E31636F70
:100D40006CAFA5EF06F0A7EF06F0A8EF06F0638FF3
:100D500060C060F061C061F062C062F063C063F0C7
:100D600012000450800B0D6E045004240F6E03AE6D
:100D7000BCEF06F0BEEF06F0BFEF06F00F800F509D
:100D8000D8B4C5EF06F0C7EF06F0DCEF06F00F2889
:100D9000D8A4CDEF06F0CFEF06F0D7EF06F0000EA7
:100DA000016E000E026E000E036E000E046E038EC6
:100DB000000E046EE4EF06F0000E016E000E026EEF
:100DC000000E036E000E046E0850800B0E6E0D5068
:100DD0000E18D8B4EEEF06F0F0EF06F0F1EF06F0E3
:100DE0000D8C085008240E6E07AEF9EF06F0FBEFED
:100DF00006F0FCEF06F00E800E50D8B402EF07F0BC
:100E000004EF07F019EF07F00E28D8A40AEF07F057
:100E10000CEF07F014EF07F0000E056E000E066EE3
:100E2000000E076E000E086E078E000E086E21EF92
:100E300007F0000E056E000E066E000E076E000E27
:100E4000086E0F500E5CD8B028EF07F02AEF07F0BD
:100E500051EF07F00DAC2FEF07F031EF07F033EF54
:100E600007F0800E0D1A0FC010F00EC00FF010C06A
:100E70000EF001C010F005C001F010C005F002C076
:100E800010F006C002F010C006F003C010F007C05A
:100E900003F010C007F004C010F008C004F010C048
:100EA00008F0000E106E0F500EC009F00A6A095EBD
:100EB000000E0A5A0ABE66EF07F00A5009E11A0E40
:100EC000095CD8A066EF07F068EF07F09FEF07F026
:100ED0000150021003100410D8A471EF07F074EF52
:100EE00007F0010E75EF07F0000E106E000E016E98
:100EF000000E026E000E036E000E046E0EC00FF0A8
:100F0000A8EF07F010A087EF07F089EF07F08FEF49
:100F100007F0D89010300109106E91EF07F0D890CB
:100F2000103201A096EF07F098EF07F099EF07F065
:100F3000108E043404320332023201320F2A0E5072
:100F40000F5CD8A0A6EF07F0A8EF07F082EF07F03C
:100F50000DBCADEF07F0AFEF07F0EFEF07F00F506C
:100F6000D8A4B5EF07F0B7EF07F0C1EF07F0000E18
:100F7000016E000E026E000E036E000E046E10EF86
:100F800009F005500126065002220750032208509E
:100F9000042204A0CEEF07F0D0EF07F07CEF08F0BA
:100FA00010A0D5EF07F0D7EF07F0DDEF07F0D890EE
:100FB00010300109106EDFEF07F0D890103201A059
:100FC000E4EF07F0E6EF07F0E7EF07F0108E0434E8
:100FD00004320332023201320F2A7CEF08F005504E
:100FE000015C06500258075003580450800A096EED
:100FF0000850800A0958D8B000EF08F002EF08F056
:101000002DEF08F00150055C096E025006580A6E7B
:10101000035007580B6E045008580C6EFF0E09243D
:10102000016EFF0E0A20026EFF0E0B20036EFF0EF4
:101030000C20046E800E0D1A106C1050D8A423EFF3
:1010400008F025EF08F035EF08F0010E0126000E3C
:1010500002220322042235EF08F00550015E0650FB
:10106000025A0750035A0850045A01500210031044
:101070000410D8A43EEF08F040EF08F075EF08F038
:101080001050D8A446EF08F048EF08F075EF08F0CC
:10109000000E016E000E026E000E036E000E046E56
:1010A00010EF09F0D890013602360336043610AE40
:1010B0005CEF08F05EEF08F05FEF08F0018010A031
:1010C00064EF08F066EF08F06AEF08F0D880103699
:1010D0006CEF08F0D89010360F50D8B472EF08F0CB
:1010E00074EF08F075EF08F00F0603AE7AEF08F022
:1010F0007CEF08F052EF08F0000E0E6E10AE83EF9A
:1011000008F085EF08F09DEF08F010C009F07F0EA1
:101110000916D8B48EEF08F090EF08F094EF08F0BD
:10112000010E0E6E9DEF08F001A099EF08F09BEF05
:1011300008F09DEF08F090EF08F00E50D8B4A3EF40
:1011400008F0A5EF08F0D0EF08F0010E0126000E20
:1011500002220322042204A0B0EF08F0B2EF08F04C
:10116000D0EF08F001C009F002C00AF003C00BF094
:1011700004C00CF00C340C320B320A32093209C0B4
:1011800001F00AC002F00BC003F00CC004F00F28FD
:10119000D8B4CDEF08F0CFEF08F0D0EF08F00F2A69
:1011A0000F28D8B4D6EF08F0D8EF08F0E0EF08F039
:1011B0000F50D8A4DEEF08F0E0EF08F0F2EF08F0EF
:1011C000000E016E000E026E000E036E000E046E25
:1011D0000F50D8A4EEEF08F0F0EF08F0F2EF08F0AF
:1011E000000E0D6E0FA0F7EF08F0F9EF08F0FCEF1E
:1011F00008F0038EFDEF08F0039ED8900F30046EC8
:101200000DAE05EF09F007EF09F008EF09F0048EC5
:1012100001C001F002C002F003C003F004C004F0FA
:10122000120000017151800B7A6F71517125806F2E
:1012300070AF1DEF09F01FEF09F020EF09F080817A
:101240008051D8B426EF09F028EF09F03BEF09F000
:101250008029D8A42EEF09F030EF09F038EF09F01B
:10126000000E6E6F000E6F6F000E706F000E716FCC
:10127000708F43EF09F0000E6E6F000E6F6F000E5F
:10128000706F000E716F7551800B7A1B755175254B
:101290007F6F74AF4EEF09F050EF09F051EF09F096
:1012A0007F817F51D8B457EF09F059EF09F06CEF07
:1012B00009F07F29D8A45FEF09F061EF09F069EF29
:1012C00009F0000E726F000E736F000E746F000E47
:1012D000756F748F74EF09F0000E726F000E736FEC
:1012E000000E746F000E756F7F51D8B47AEF09F05D
:1012F0007CEF09F084EF09F08051D8A482EF09F067
:1013000084EF09F08EEF09F0000E6E6F000E6F6F24
:10131000000E706F000E716F26EF0BF074516E03AC
:10132000F3CF85F0F4CF86F085517B6F7C6B7D6BBE
:101330007E6B8651816F826B836B846B73516F03FD
:10134000F3CF85F0F4CF86F085517B27000E7C2308
:101350007D237E2386518127000E822383238423CD
:1013600072517003F3CF85F0F4CF86F085517B275F
:10137000000E7C237D237E2386518127000E82234D
:10138000832384237DC07EF07CC07DF07BC07CF015
:101390007B6B72516F03F3CF85F0F4CF86F08551EC
:1013A0007B2786517C23000E7D23000E7E23735104
:1013B0006E03F3CF85F0F4CF86F085517B278651FD
:1013C0007C23000E7D23000E7E237DC07EF07CC03A
:1013D0007DF07BC07CF07B6B72516E03F3CF85F0A8
:1013E000F4CF86F085517B2786517C23000E7D2328
:1013F000000E7E2374516F03F3CF85F0F4CF86F097
:101400008551812786518223000E8323000E842379
:1014100073517003F3CF85F0F4CF86F085518127A7
:1014200086518223000E8323000E8423745170039F
:10143000F3CF85F0F4CF86F08551766F8651776FC4
:10144000786B796B78C079F077C078F076C077F0F8
:10145000766B765181277751822378518323795196
:1014600084237BC076F07CC077F07DC078F07EC0AE
:1014700079F0190E41EF0AF0D89079337833773349
:101480007633E82E3CEF0AF076518127775182239C
:1014900078518323795184237DC07EF07CC07DF018
:1014A0007BC07CF07B6B7F5180C076F0776B7627BA
:1014B000000E7723820E7625856FFF0E7721866FCB
:1014C00077EF0AF0D89081378237833784377EAF41
:1014D0006CEF0AF06EEF0AF06FEF0AF08181D8909E
:1014E0007B377C377D377E378507D8A0860783AF6B
:1014F0007CEF0AF07EEF0AF062EF0AF0000E7F6FD9
:101500007EAF85EF0AF087EF0AF0ABEF0AF0FF0E2F
:101510007B15766FFF0E7C15776FFF0E7D15786F4C
:101520007F0E7E15796F7651771178117911D8B4C5
:101530009CEF0AF09EEF0AF0A2EF0AF0010E7F6F17
:10154000ABEF0AF081A1A7EF0AF0A9EF0AF0ABEF29
:101550000AF09EEF0AF07F51D8B4B1EF0AF0B3EF72
:101560000AF0D7EF0AF0010E8127000E82238323B1
:10157000842384A1BEEF0AF0C0EF0AF0D7EF0AF08F
:1015800081C076F082C077F083C078F084C079F0B3
:101590007935793378337733763376C081F077C015
:1015A00082F078C083F079C084F0854B862B86BFAB
:1015B000E2EF0AF0865108E18529D8A0E2EF0AF0AF
:1015C000E4EF0AF0EEEF0AF0000E816F000E826F7A
:1015D000800E836F7F0E846F1CEF0BF086BFFBEFD6
:1015E0000AF0865106E18505D8B0F9EF0AF0FBEF65
:1015F0000AF007EF0BF0000E816F000E826F000EF5
:10160000836F000E846F000E7A6F1CEF0BF085C0A5
:1016100080F0FF0E8117FF0E82177F0E8317000EDA
:10162000841780A116EF0BF018EF0BF019EF0BF0F9
:10163000838FD8908031846F7A51841381C06EF08B
:1016400082C06FF083C070F084C071F0120012503D
:10165000800B1B6E12501224216E11AE32EF0BF074
:1016600034EF0BF035EF0BF021802150D8B43BEF75
:101670000BF03DEF0BF050EF0BF02128D8A443EF17
:101680000BF045EF0BF04DEF0BF0000E0F6E000E60
:10169000106E000E116E000E126E118E58EF0BF0D0
:1016A000000E0F6E000E106E000E116E000E126E08
:1016B0001650800B1B1A16501624206E15AE63EFC1
:1016C0000BF065EF0BF066EF0BF020802050D8B4E4
:1016D0006CEF0BF06EEF0BF081EF0BF02028D8A42D
:1016E00074EF0BF076EF0BF07EEF0BF0000E136E45
:1016F000000E146E000E156E000E166E158E89EF1C
:101700000BF0000E136E000E146E000E156E000E20
:10171000166E2050D8B48FEF0BF091EF0BF099EFCD
:101720000BF02150D8A497EF0BF099EF0BF0A3EF3B
:101730000BF0000E0F6E000E106E000E116E000EFC
:10174000126E3BEF0DF015500F02F3CF26F0F4CFE1
:1017500027F026501C6E1D6A1E6A1F6A2750226ED3
:10176000236A246A256A14501002F3CF26F0F4CFBE
:1017700027F026501C26000E1D221E221F22275055
:101780002226000E23222422252213501102F3CFF9
:1017900026F0F4CF27F026501C26000E1D221E2214
:1017A0001F2227502226000E2322242225221EC07B
:1017B0001FF01DC01EF01CC01DF01C6A135010024B
:1017C000F3CF26F0F4CF27F026501C2627501D22F9
:1017D000000E1E22000E1F2214500F02F3CF26F01F
:1017E000F4CF27F026501C2627501D22000E1E2263
:1017F000000E1F221EC01FF01DC01EF01CC01DF0D9
:101800001C6A13500F02F3CF26F0F4CF27F02650B6
:101810001C2627501D22000E1E22000E1F221550CE
:101820001002F3CF26F0F4CF27F0265022262750BF
:101830002322000E2422000E252214501102F3CF81
:1018400026F0F4CF27F02650222627502322000E20
:101850002422000E252215501102F3CF26F0F4CFDA
:1018600027F02650176E2750186E196A1A6A19C089
:101870001AF018C019F017C018F0176A175022266E
:1018800018502322195024221A5025221CC017F068
:101890001DC018F01EC019F01FC01AF0190E56EF27
:1018A0000CF0D8901A32193218321732E82E51EF54
:1018B0000CF01750222618502322195024221A50B7
:1018C00025221EC01FF01DC01EF01CC01DF01C6A8A
:1018D000205021C017F0186A1726000E1822820E19
:1018E0001724266EFF0E1820276E8CEF0CF0D89070
:1018F00022362336243625361FAE81EF0CF083EFD7
:101900000CF084EF0CF02280D8901C361D361E3669
:101910001F362606D8A0270624AE91EF0CF093EFD1
:101920000CF077EF0CF0000E206E1FAE9AEF0CF06B
:101930009CEF0CF0C0EF0CF0FF0E1C14176EFF0EA6
:101940001D14186EFF0E1E14196E7F0E1F141A6ED2
:101950001750181019101A10D8B4B1EF0CF0B3EFDB
:101960000CF0B7EF0CF0010E206EC0EF0CF022A0CF
:10197000BCEF0CF0BEEF0CF0C0EF0CF0B3EF0CF0CE
:101980002050D8B4C6EF0CF0C8EF0CF0ECEF0CF020
:10199000010E2226000E23222422252225A0D3EF89
:1019A0000CF0D5EF0CF0ECEF0CF022C017F023C0D8
:1019B00018F024C019F025C01AF01A341A3219325E
:1019C0001832173217C022F018C023F019C024F0C3
:1019D0001AC025F0264A272A27BEF7EF0CF0275019
:1019E00008E12628D8A0F7EF0CF0F9EF0CF003EF90
:1019F0000DF0000E226E000E236E800E246E7F0E00
:101A0000256E31EF0DF027BE10EF0DF0275006E1E7
:101A10002604D8B00EEF0DF010EF0DF01CEF0DF016
:101A2000000E226E000E236E000E246E000E256E38
:101A3000000E1B6E31EF0DF026C021F0FF0E2216B6
:101A4000FF0E23167F0E2416000E251621A02BEF65
:101A50000DF02DEF0DF02EEF0DF0248ED8902130EB
:101A6000256E1B50251222C00FF023C010F024C099
:101A700011F025C012F01200F0C099F0F1C09AF0F8
:101A8000F2C09BF0F3C09CF087C099F088C09AF038
:101A900089C09BF08AC09CF099C08BF09AC08CF0F2
:101AA0009BC08DF09CC08EF0180E5DEF0DF0000114
:101AB000D8908E338D338C338B33E82E57EF0DF067
:101AC0008B51936F946B94BF6FEF0DF0945109E1BC
:101AD000960E935DD8A06FEF0DF071EF0DF07BEFD8
:101AE0000DF087C087F088C088F089C089F08AC06F
:101AF0008AF01BEF0FF099C08BF09AC08CF09BC05E
:101B00008DF09CC08EF0200E8BEF0DF0D8908E33B0
:101B10008D338C338B33E82E86EF0DF08B518C1187
:101B20008D118E11D8B497EF0DF099EF0DF0ABEF4A
:101B30000DF087C060F088C061F089C062F08AC093
:101B400063F038EC23F060C087F061C088F062C0B9
:101B500089F063C08AF0000194BFBAEF0DF0945190
:101B600007E17E0E935DD8B0B8EF0DF0BAEF0DF03F
:101B7000D6EF0DF099C06EF09AC06FF09BC070F078
:101B80009CC071F0000E726F000E736F000E746FC8
:101B9000000E756F11EC09F06EC087F06FC088F011
:101BA00070C089F071C08AF01BEF0FF0000E646FF7
:101BB000000E656F000E666F4B0E676F87C060F09A
:101BC00088C061F089C062F08AC063F050EC04F014
:101BD00060C095F061C096F062C097F063C098F065
:101BE000000E0001646F000E656F000E666FCB0E75
:101BF000676F95C060F096C061F097C062F098C0C2
:101C000063F050EC04F060C08FF061C090F062C0EF
:101C100091F063C092F08FC070F090C071F091C0ED
:101C200072F092C073F087C074F088C075F089C0FC
:101C300076F08AC077F0ADEC21F070C09DF071C0F5
:101C40009EF072C09FF073C0A0F0000E0001606FA4
:101C5000000E616F000E626F3F0E636F9DC064F0F7
:101C60009EC065F09FC066F0A0C067F04AEC19F016
:101C70000001D8B03EEF0EF040EF0EF077EF0EF01F
:101C800087C064F088C065F089C066F08AC067F0DC
:101C90009DC060F09EC061F09FC062F0A0C063F084
:101CA00050EC04F060C095F061C096F062C097F00F
:101CB00063C098F095C060F096C061F097C062F084
:101CC00098C063F0000E0001646F000E656F800E17
:101CD000666FBF0E676F50EC04F060C09DF061C08E
:101CE0009EF062C09FF063C0A0F0E2EF0EF0000E25
:101CF000606F000E616F000E626FBF0E636F9DC05C
:101D000064F09EC065F09FC066F0A0C067F04AEC2A
:101D100019F00001D8A08FEF0EF091EF0EF0C8EF90
:101D20000EF087C064F088C065F089C066F08AC094
:101D300067F09DC060F09EC061F09FC062F0A0C0DF
:101D400063F050EC04F060C095F061C096F062C0A2
:101D500097F063C098F095C060F096C061F097C0AE
:101D600062F098C063F0000E0001646F000E656FB2
:101D7000800E666F3F0E676F50EC04F060C09DF000
:101D800061C09EF062C09FF063C0A0F0E2EF0EF071
:101D90009DC060F09EC061F09FC062F0A0C063F083
:101DA00087C064F088C065F089C066F08AC067F0BB
:101DB00050EC04F060C09DF061C09EF062C09FF0E6
:101DC00063C0A0F099C08BF09AC08CF09BC08DF0DE
:101DD0009CC08EF0200EF3EF0EF00001D8908E33F1
:101DE0008D338C338B33E82EEDEF0EF08B518C114D
:101DF0008D118E11D8B4FFEF0EF001EF0FF013EF3D
:101E00000FF09DC060F09EC061F09FC062F0A0C066
:101E100063F038EC23F060C09DF061C09EF062C0BA
:101E20009FF063C0A0F09DC087F09EC088F09FC067
:101E300089F0A0C08AF01200F0C03AF0F1C03BF087
:101E4000F2C03CF0F3C03DF028C03AF029C03BF0AE
:101E50002AC03CF02BC03DF03AC02CF03BC02DF026
:101E60003CC02EF03DC02FF0180E3CEF0FF0D89084
:101E70002F322E322D322C32E82E37EF0FF02C502D
:101E8000346E356A35BE4EEF0FF0355009E1960ECF
:101E9000345CD8A04EEF0FF050EF0FF05AEF0FF078
:101EA00028C028F029C029F02AC02AF02BC02BF026
:101EB000F2EF10F03AC02CF03BC02DF03CC02EF0F9
:101EC0003DC02FF0200E6AEF0FF0D8902F322E3247
:101ED0002D322C32E82E65EF0FF02C502D102E10E5
:101EE0002F10D8B476EF0FF078EF0FF08AEF0FF0E5
:101EF00028C001F029C002F02AC003F02BC004F072
:101F000071EC23F001C028F002C029F003C02AF0D0
:101F100004C02BF035BE98EF0FF0355007E17E0E70
:101F2000345CD8B096EF0FF098EF0FF0B4EF0FF0ED
:101F30003AC00FF03BC010F03CC011F03DC012F0B1
:101F4000000E136E000E146E000E156E000E166E4F
:101F500027EC0BF00FC028F010C029F011C02AF0B8
:101F600012C02BF0F2EF10F0000E056E000E066EA0
:101F7000000E076E4B0E086E28C001F029C002F05B
:101F80002AC003F02BC004F0B1EC06F001C036F01B
:101F900002C037F003C038F004C039F0000E056EFF
:101FA000000E066E000E076ECB0E086E36C001F0F6
:101FB00037C002F038C003F039C004F0B1EC06F0CD
:101FC00001C030F002C031F003C032F004C033F081
:101FD00030C011F031C012F032C013F033C014F031
:101FE00028C015F029C016F02AC017F02BC018F031
:101FF00017EC22F011C03EF012C03FF013C040F0C9
:1020000014C041F0000E016E000E026E000E036E51
:102010003F0E046E3EC005F03FC006F040C007F022
:1020200041C008F050EC1AF0D8B019EF10F01BEFD7
:1020300010F051EF10F028C005F029C006F02AC0BA
:1020400007F02BC008F03EC001F03FC002F040C0D6
:1020500003F041C004F0B1EC06F001C036F002C05C
:1020600037F003C038F004C039F036C001F037C093
:1020700002F038C003F039C004F0000E056E000E07
:10208000066E800E076EBF0E086EB1EC06F001C042
:102090003EF002C03FF003C040F004C041F0BAEF90
:1020A00010F0000E016E000E026E000E036EBF0EE9
:1020B000046E3EC005F03FC006F040C007F041C0CE
:1020C00008F050EC1AF0D8A068EF10F06AEF10F0AA
:1020D000A0EF10F028C005F029C006F02AC007F0D4
:1020E0002BC008F03EC001F03FC002F040C003F03A
:1020F00041C004F0B1EC06F001C036F002C037F088
:1021000003C038F004C039F036C001F037C002F027
:1021100038C003F039C004F0000E056E000E066EE4
:10212000800E076E3F0E086EB1EC06F001C03EF067
:1021300002C03FF003C040F004C041F0BAEF10F01D
:102140003EC001F03FC002F040C003F041C004F0C7
:1021500028C005F029C006F02AC007F02BC008F0FF
:10216000B1EC06F001C03EF002C03FF003C040F009
:1021700004C041F03AC02CF03BC02DF03CC02EF022
:102180003DC02FF0200ECAEF10F0D8902F322E3223
:102190002D322C32E82EC5EF10F02C502D102E10C1
:1021A0002F10D8B4D6EF10F0D8EF10F0EAEF10F0FF
:1021B0003EC001F03FC002F040C003F041C004F057
:1021C00071EC23F001C03EF002C03FF003C040F0CC
:1021D00004C041F03EC028F03FC029F040C02AF0C2
:1021E00041C02BF012007DC095F07EC096F07FC0FC
:1021F00097F080C098F081C099F082C09AF083C0B7
:102200009BF084C09CF000019CBF09EF11F00CEF23
:1022100011F0010E0DEF11F0000E936F946B9351BE
:102220009411D8B416EF11F018EF11F028EF11F057
:102230009C1F9B1F9A1F991F981F971F961F956D94
:10224000000E96239723982399239A239B239C235C
:10225000F9BF2DEF11F02FEF11F030EF11F0FA93DD
:10226000F9BF3DEF11F0F95106E1F805D8B03BEFA9
:1022700011F03DEF11F043EF11F0000E906F010EE1
:102280008F6F47EF11F0F8C08FF0F9C090F0F6C0F3
:1022900091F0F7C092F093519411D8A452EF11F03D
:1022A00054EF11F05BEF11F0FAA559EF11F05BEF6D
:1022B00011F05EEF11F09107D8A09207000E9E6F0B
:1022C0001F0E9D6F000E01011F6FE4EF11F09D07BF
:1022D000D8A09E07000E9D25D96E010E9E21DA6EB4
:1022E00095C060F096C061F097C062F098C063F04E
:1022F00099C064F09AC065F09BC066F09CC067F01E
:102300000A0E686F000E696F000E6A6F000E6B6F29
:10231000000E6C6F000E6D6F000E6E6F000E6F6F13
:102320007DEC17F060C085F061C086F062C087F078
:1023300063C088F064C089F065C08AF066C08BF025
:1023400067C08CF085C072F087C073F0A0EC22F0FB
:1023500000017251300FDF6E8F07D8A090079107F0
:10236000D8A0920795C060F096C061F097C062F067
:1023700098C063F099C064F09AC065F09BC066F0A5
:102380009CC067F00A0E686F000E696F000E6A6FDE
:10239000000E6B6F000E6C6F000E6D6F000E6E6F97
:1023A000000E6F6FB8EC16F060C095F061C096F04B
:1023B00062C097F063C098F064C099F065C09AF06D
:1023C00066C09BF067C09CF000019EBFF0EF11F06B
:1023D0009E5108E19D05D8A0F0EF11F0F2EF11F049
:1023E00022EF12F0955196119711981199119A11A7
:1023F0009B119C11D8A4FFEF11F001EF12F067EFD1
:1024000011F090BF0EEF12F0905106E18F05D8B099
:102410000CEF12F00EEF12F067EF11F092BF19EF10
:1024200012F0925108E19105D8A019EF12F01BEFBC
:1024300012F022EF12F0FAB320EF12F022EF12F0B6
:1024400067EF11F093519411D8A429EF12F02BEFFC
:1024500012F032EF12F0FAA530EF12F032EF12F074
:1024600050EF12F09D07D8A09E0793519411D8A465
:102470003CEF12F03EEF12F044EF12F0000E8E6FC0
:102480002B0E8D6F48EF12F0000E8E6F2D0E8D6F9C
:10249000000E9D25D96E010E9E21DA6E8DC0DFFFE4
:1024A0007BC070F07CC071F0000E9D25726F010E34
:1024B0009E21736F91C074F092C075F09AEC1CF07D
:1024C00070C07BF071C07CF01200010EF66E080E39
:1024D000F76E20EE67F00F0E0900F5CFDEFFE8067D
:1024E000FBE2000E0001786F000E776F90EF12F0A4
:1024F0008190818281848186AEEF12F08180819209
:1025000081848186AEEF12F0818081828194818600
:10251000AEEF12F08180818281848196AEEF12F05D
:1025200077C065F078C066F06651000AD8B49BEFBA
:1025300012F0AEEF12F06551000AD8B478EF12F045
:10254000010AD8B47EEF12F0030AD8B484EF12F077
:10255000010AD8B48AEF12F0AEEF12F081B8B3EFEF
:1025600012F0B5EF12F0CFEF12F0010E616F2C0EEA
:10257000606F3AEC22F0670E0001656F000E666F27
:10258000D8907735D96E7835DA6ED890D936DA3674
:102590006551D9266651DA22DF504FEF13F081BA28
:1025A000D4EF12F0D6EF12F0F4EF12F0010E616FDB
:1025B0002C0E606F3AEC22F077C065F078C066F0C0
:1025C0000001D89065376637D89065376637010EB9
:1025D0006527000E6623670E6525D96E000E6621FD
:1025E000DA6EDF504FEF13F081BCF9EF12F0FBEF22
:1025F00012F019EF13F0010E616F2C0E606F3AECC0
:1026000022F077C065F078C066F00001D890653799
:102610006637D89065376637020E6527000E662349
:10262000670E6525D96E000E6621DA6EDF504FEF1A
:1026300013F081BE1EEF13F020EF13F03EEF13F006
:10264000010E616F2C0E606F3AEC22F077C065F0DE
:1026500078C066F00001D89065376637D890653746
:102660006637030E6527000E6623670E6525D96E53
:10267000000E6621DA6EDF504FEF13F0774B782BA8
:1026800078BF4CEF13F0785109E1040E775DD8A0C4
:102690004CEF13F04EEF13F090EF12F0000E12001B
:1026A000A1C0D9FFA2C0DAFFDECFF6FFDDCFF7FF72
:1026B0000800F550250AD8A460EF13F062EF13F07C
:1026C0000FEF14F0A1C0D9FFA2C0DAFFDE2A000E7E
:1026D000DD22000E0001F76F000EF66FF6C0FAF073
:1026E000F7C0FBF0F869F969A1C0D9FFA2C0DAFF11
:1026F000DECFF6FFDDCFF7FF0800F550640AD8B44F
:1027000084EF13F086EF13F098EF13F0A1C0D9FF18
:10271000A2C0DAFFDECFF6FFDDCFF7FF0800F550ED
:10272000690AD8A496EF13F098EF13F0D8EF13F0DE
:10273000A1C0D9FFA2C0DAFFDE2A000EDD22A3C0AD
:10274000D9FFA4C0DAFFDFCFA5F0020EDE26DFCF6F
:10275000A6F0000EDD22A5C0D9FFA6C0DAFFDECFAD
:10276000A7F0DDCFA8F0000EA8BFFF0EA96FAA6FDB
:10277000AB6FAC6FAD6FAE6F9FC07BF0A0C07CF055
:10278000A7C07DF0A8C07EF0A9C07FF0AAC080F0ED
:10279000ABC081F0ACC082F0ADC083F0AEC084F0BD
:1027A000F3EC10F07BC09FF07CC0A0F02BEF14F096
:1027B000A1C0D9FFA2C0DAFFDECFF6FFDDCFF7FF61
:1027C0000800F550250AD8A4E8EF13F0EAEF13F05B
:1027D00002EF14F0A1C0D9FFA2C0DAFFDE2A000E7A
:1027E000DD22000E616F250E606F9FC062F0A0C0F9
:1027F00063F034EC1CF0000E0001A06F010E9F6F1F
:102800002BEF14F0A1C0D9FFA2C0DAFFDE2A000E20
:10281000DD22000EA06F000E9F6F2BEF14F0A1C001
:10282000D9FFA2C0DAFFDECFF6FFDDCFF7FF080049
:10283000F5500001606F616B9FC062F0A0C063F053
:1028400034EC1CF0A1C0D9FFA2C0DAFFDE2A000ED2
:10285000DD22FBEF13F012000001686F00016851E8
:10286000D8B435EF14F037EF14F059EF14F063BF1C
:102870003EEF14F03CEF14F059EF14F060C064F038
:1028800061C065F062C066F063C067F0641F651FD9
:10289000661F671F642B000E65236623672364C0D1
:1028A0006AF065C06BF066C06CF067C06DF061EFF8
:1028B00014F060C06AF061C06BF062C06CF063C07D
:1028C0006DF06051611162116311D8A46AEF14F0C8
:1028D0006CEF14F076EF14F0000E606F000E616F75
:1028E000000E626F000E636F07EF15F0960E696FB2
:1028F00080EF14F0692BD8906D336C336B336A33EF
:10290000000E6A15646F000E6B15656F000E6C1576
:10291000666FFE0E6D15676F645165116611671164
:10292000D8A495EF14F097EF14F07AEF14F0A5EF18
:1029300014F0692B010E6A27000E6B236C236D23A4
:10294000D8906D336C336B336A33000E6A15646F45
:10295000000E6B15656F000E6C15666FFF0E6D1522
:10296000676F6451651166116711D8A4BAEF14F04E
:10297000BCEF14F099EF14F0C4EF14F06907D8908D
:102980006A376B376C376D376CBFC9EF14F0CBEF1C
:1029900014F0D3EF14F0020E6961D1EF14F0D3EF0D
:1029A00014F0BEEF14F069B1D8EF14F0DAEF14F0C0
:1029B000DBEF14F06C9FD890693369C064F0656BED
:1029C000666B676B64C067F0666B656B646B6451C4
:1029D0006A1365516B1366516C1367516D1368511F
:1029E000D8B4F5EF14F0F7EF14F0FFEF14F063BF75
:1029F000FEEF14F0FCEF14F0FFEF14F06D8F6AC0DF
:102A000060F06BC061F06CC062F06DC063F01200EA
:102A1000096E0950D8B40FEF15F011EF15F033EF30
:102A200015F004BE18EF15F016EF15F033EF15F0A2
:102A300001C005F002C006F003C007F004C008F0B2
:102A4000051E061E071E081E052A000E0622072266
:102A5000082205C00BF006C00CF007C00DF008C03E
:102A60000EF03BEF15F001C00BF002C00CF003C0FC
:102A70000DF004C00EF00150021003100410D8A491
:102A800044EF15F046EF15F050EF15F0000E016E13
:102A9000000E026E000E036E000E046EE1EF15F0E4
:102AA000960E0A6E5AEF15F00A2AD8900E320D32A1
:102AB0000C320B32000E0B14056E000E0C14066E59
:102AC000000E0D14076EFE0E0E14086E0550061053
:102AD00007100810D8A46FEF15F071EF15F054EF40
:102AE00015F07FEF15F00A2A010E0B26000E0C22BE
:102AF0000D220E22D8900E320D320C320B32000E07
:102B00000B14056E000E0C14066E000E0D14076EED
:102B1000FF0E0E14086E0550061007100810D8A4FA
:102B200094EF15F096EF15F073EF15F09EEF15F09A
:102B30000A06D8900B360C360D360E360DBEA3EFB6
:102B400015F0A5EF15F0ADEF15F0020E0A60ABEF32
:102B500015F0ADEF15F098EF15F00AB0B2EF15F0E3
:102B6000B4EF15F0B5EF15F00D9ED8900A320AC0FB
:102B700005F0066A076A086A05C008F0076A066A6F
:102B8000056A05500B1206500C1207500D12085022
:102B90000E120950D8B4CFEF15F0D1EF15F0D9EFE0
:102BA00015F004BED8EF15F0D6EF15F0D9EF15F0FB
:102BB0000E8E0BC001F00CC002F00DC003F00EC071
:102BC00004F01200300E0001836FC282D00E796FC4
:102BD000FF0E7A6F83517B6F7C6B79517B277A5123
:102BE0007C237C510AE10A0E7B5DD8A0FAEF15F038
:102BF000FDEF15F0010EFEEF15F0000E7D6F7E6B00
:102C00007D517E11D8A407EF16F009EF16F012EFF0
:102C100016F0FC51FD11D8B410EF16F012EF16F0BB
:102C2000AAEF16F0D00E83256A6F6B6BFF0E6B2335
:102C300024EC1EF000016A516B11D8A422EF16F0AB
:102C400024EF16F041EF16F0300E8319D8B42BEFB5
:102C500016F02DEF16F041EF16F0FC51FD11D8A43F
:102C600034EF16F036EF16F041EF16F0D6EC23F005
:102C70005B0E0001616F080E626F33EC1FF0E6EC33
:102C800023F0A5EC1FF0D6EC23F0C80E11EC24F0D5
:102C9000310AD8B44EEF16F050EF16F057EF16F099
:102CA000970E00017F6F080E806F5CEF16F09B0E91
:102CB00000017F6F080E806F790E616F080E626FE2
:102CC00033EC1FF07FC061F080C062F033EC1FF086
:102CD000C00E7EEC22F0C90E11EC24F0310AD8B4FB
:102CE00074EF16F076EF16F07DEF16F0970E0001F8
:102CF000816F080E826F82EF16F09B0E0001816FCC
:102D0000080E826F800E616F080E626F33EC1FF049
:102D100081C061F082C062F033EC1FF0CC0E7EEC1B
:102D200022F0920E0001616F080E626F33EC1FF00B
:102D3000000E0001FD6F000EFC6F0D0E00017A6F9A
:102D4000AF0E796FB60EE82EFED7792FFCD77A2F0B
:102D5000FAD700F065EC12F00001836F230E83199F
:102D6000D8A4B5EF16F0B7EF16F0E5EF15F01200A6
:102D7000000E0001716F6FBFC2EF16F0C0EF16F0CA
:102D8000D4EF16F06F1F6E1F6D1F6C1F6B1F6A1F35
:102D9000691F686D000E69236A236B236C236D2302
:102DA0006E236F23010E716F67BFDBEF16F0D9EF53
:102DB00016F0EDEF16F0671F661F651F641F631F97
:102DC000621F611F606D000E612362236323642311
:102DD000652366236723010E711B20EE72F0070E38
:102DE000DE6AE806FDE2685169116A116B116C1127
:102DF0006D116E116F11D8B400EF17F002EF17F0DC
:102E000054EF17F0010E706F10EF17F0D89068377D
:102E100069376A376B376C376D376E376F37702BA2
:102E20006FAF15EF17F017EF17F006EF17F0D89008
:102E3000723773377437753776377737783779372E
:102E40006851605D695161596A5162596B516359AA
:102E50006C5164596D5165596E5166596F5167597E
:102E6000D8A035EF17F037EF17F048EF17F068519B
:102E7000605F6951615B6A51625B6B51635B6C516E
:102E8000645B6D51655B6E51665B6F51675B728110
:102E9000D8906F336E336D336C336B336A33693371
:102EA0006833702F17EF17F07151D8B45AEF17F03D
:102EB0005CEF17F06CEF17F0791F781F771F761F04
:102EC000751F741F731F726D000E73237423752397
:102ED000762377237823792372C060F073C061F082
:102EE00074C062F075C063F076C064F077C065F0BE
:102EF00078C066F079C067F01200000E0001716FB3
:102F000067BF87EF17F085EF17F099EF17F0671F8E
:102F1000661F651F641F631F621F611F606D000EC7
:102F20006123622363236423652366236723010EE1
:102F3000716F6FBFA0EF17F09EEF17F0B0EF17F0B3
:102F40006F1F6E1F6D1F6C1F6B1F6A1F691F686DDF
:102F5000000E69236A236B236C236D236E236F237A
:102F6000685169116A116B116C116D116E116F113D
:102F7000D8B4BDEF17F0BFEF17F007EF18F0010E50
:102F8000706FCDEF17F0D890683769376A376B37B5
:102F90006C376D376E376F37702B6FAFD2EF17F01E
:102FA000D4EF17F0C3EF17F06851605D69516159B4
:102FB0006A5162596B5163596C5164596D5165592D
:102FC0006E5166596F516759D8A0E9EF17F0EBEFD2
:102FD00017F0FBEF17F06851605F6951615B6A5150
:102FE000625B6B51635B6C51645B6D51655B6E51F1
:102FF000665B6F51675BD8906F336E336D336C33A4
:103000006B336A3369336833702FD4EF17F0715123
:10301000D8B40DEF18F00FEF18F01FEF18F0671F7E
:10302000661F651F641F631F621F611F606D000EB6
:10303000612362236323642365236623672360C0BF
:1030400060F061C061F062C062F063C063F064C0B0
:1030500064F065C065F066C066F067C067F0120096
:10306000C282D6EC23F0820E7EEC22F0350E0001F7
:10307000616F080E626F33EC1FF08E0E0001796FE6
:10308000000E7A6FC4EC1DF00D0E0001866FAF0EBE
:10309000856FB60EE82EFED7852FFCD7862FFAD780
:1030A00000F0D00E0001856FFF0E866F8E0E666FEA
:1030B000000E676F43EC20F00001876F886B85512D
:1030C00087278651882387518811D8B46AEF18F072
:1030D0006CEF18F0AEEF18F0D6EC23F0830E7EEC18
:1030E00022F0430E0001616F080E626F33EC1FF097
:1030F000890E0001796F000E7A6FC4EC1DF00D0E81
:103100000001866FAF0E856FB60EE82EFED7852FB5
:10311000FCD7862FFAD700F08E0E0001686F000EE4
:10312000696F890E6A6F000E6B6F6EEC1EF0D6EC45
:1031300023F0870E0001616F080E626F33EC1FF001
:10314000C00E7EEC22F0700E0001616F080E626FFF
:1031500033EC1FF0E6EC23F0C5EF18F0D6EC23F0CB
:10316000870E0001616F080E626F33EC1FF0C00E16
:103170007EEC22F0260E0001616F080E626F33ECC8
:103180001FF0E6EC23F030EF18F012000001A33539
:10319000A435AA6FAA51D8A4D0EF18F0D2EF18F036
:1031A000DCEF18F0000EA16F000EA26F000EA36FEF
:1031B000000EA46F49EF19F0A1C0A5F0A2C0A6F0BF
:1031C000A3C0A7F0A4C0A8F0200EECEF18F0D89090
:1031D000A833A733A633A533E82EE7EF18F0A5519F
:1031E000A96FA38FFF0EA117FF0EA217FF0EA31743
:1031F000000EA417960EAA5FAABF03EF19F001EF05
:1032000019F019EF19F0AA51800A970FD8B00BEFF7
:1032100019F00DEF19F00FEF19F0D2EF18F0D89068
:10322000A433A333A233A133AA3F0FEF19F031EF38
:1032300019F01F0EAA651FEF19F021EF19F029EF01
:1032400019F0D2EF18F0D890A137A237A337A437DE
:10325000AA07AA51D8A42FEF19F031EF19F023EFE4
:1032600019F0A951D8B437EF19F039EF19F041EF3F
:1032700019F0A41FA31FA21FA16D000EA223A32358
:10328000A423A1C0A1F0A2C0A2F0A3C0A3F0A4C037
:10329000A4F01200000E00016015686F000E6115A9
:1032A000696F800E62156A6F7F0E63156B6F6851D0
:1032B00069116A116B11D8A460EF19F062EF19F06F
:1032C0006AEF19F0000E606F000E616F000E626F02
:1032D000000E636F000E6415686F000E6515696F50
:1032E000800E66156A6F7F0E67156B6F68516911E6
:1032F0006A116B11D8A47FEF19F081EF19F089EFF3
:1033000019F0000E646F000E656F000E666F000E00
:10331000676F63AF8EEF19F090EF19F099EF19F026
:10332000606D611FD8B0612B621FD8B0622B800E18
:10333000635767AF9EEF19F0A0EF19F0A9EF19F0EE
:10334000646D651FD8B0652B661FD8B0662B800EE4
:103350006757000E601B000E611B000E621B800E83
:10336000631B000E641B000E651B000E661B800EA7
:10337000671B6451605D65516159665162596751BF
:103380006359D8B0C6EF19F0C8EF19F0CBEF19F0B8
:10339000D890CCEF19F0D8801200443445344B6EED
:1033A0004B50D8A4D6EF19F0D8EF19F0E2EF19F08E
:1033B000000E426E000E436E000E446E000E456E0F
:1033C0004FEF1AF042C046F043C047F044C048F007
:1033D00045C049F0200EF2EF19F0D890493248323A
:1033E00047324632E82EEDEF19F046504A6E448ED1
:1033F000FF0E4216FF0E4316FF0E4416000E451632
:10340000960E4B5E4BBE09EF1AF007EF1AF01FEF56
:103410001AF04B50800A970FD8B011EF1AF013EF43
:103420001AF015EF1AF0D8EF19F0D890453244325F
:10343000433242324B3E15EF1AF037EF1AF01F0EAF
:103440004B6425EF1AF027EF1AF02FEF1AF0D8EFA0
:1034500019F0D89042364336443645364B064B5029
:10346000D8A435EF1AF037EF1AF029EF1AF04A50C6
:10347000D8B43DEF1AF03FEF1AF047EF1AF0451EAF
:10348000441E431E426C000E43224422452242C089
:1034900042F043C043F044C044F045C045F0120040
:1034A000000E0114096E000E02140A6E800E031441
:1034B0000B6E7F0E04140C6E09500A100B100C10CA
:1034C000D8A465EF1AF067EF1AF06FEF1AF0000E4C
:1034D000016E000E026E000E036E000E046E000EF2
:1034E0000514096E000E06140A6E800E07140B6E8A
:1034F0007F0E08140C6E09500A100B100C10D8A483
:1035000084EF1AF086EF1AF08EEF1AF0000E056EB7
:10351000000E066E000E076E000E086E04AE93EFEE
:103520001AF095EF1AF09EEF1AF0016C021ED8B057
:10353000022A031ED8B0032A800E045608AEA3EF59
:103540001AF0A5EF1AF0AEEF1AF0056C061ED8B00F
:10355000062A071ED8B0072A800E0856000E011A48
:10356000000E021A000E031A800E041A000E051A2D
:10357000000E061A000E071A800E081A0550015C8C
:10358000065002580750035808500458D8B0CBEFE3
:103590001AF0CDEF1AF0D0EF1AF0D890D1EF1AF060
:1035A000D8801200C282D6EC23F0810E7EEC22F08D
:1035B000150E0001616F080E626F33EC1FF0030EF1
:1035C0000001866F8A0E856F550EE82EFED7852F77
:1035D000FCD7862FFAD700D0870E0001796F000E36
:1035E0007A6FC4EC1DF00D0E0001866FAF0E856F73
:1035F000B60EE82EFED7852FFCD7862FFAD700F01F
:10360000870E0001666F000E676F43EC20F000012B
:10361000856FD00E8525FE6FFF6BFF0EFF23FFBF6A
:103620001AEF1BF0FF5108E1FE05D8A01AEF1BF0BE
:103630001CEF1BF035EF1BF0D6EC23F05F0E000102
:10364000616F080E626F33EC1FF0C00E7EEC22F04B
:10365000660E0001616F080E626F33EC1FF0E6EC3E
:1036600023F0E2EC15F04CEF1BF0D6EC23F0870EC4
:103670000001616F080E626F33EC1FF0C00E7EEC2C
:1036800022F0260E0001616F080E626F33EC1FF00E
:10369000E6EC23F0D2EF1AF012000001616F0F0E7A
:1036A00083160F0E95169694969096928D948D9003
:1036B0008D92FEEC23F0300E7EEC22F0F4EC23F041
:1036C000F4EC23F0300E7EEC22F0F4EC23F0F4EC7A
:1036D00023F0320E7EEC22F0F4EC21F00009D8A4A5
:1036E00074EF1BF076EF1BF06CEF1BF0F4EC21F0A5
:1036F0000009D8A47EEF1BF080EF1BF076EF1BF0E3
:10370000000161517EEC22F0F4EC21F00009D8A414
:103710008CEF1BF08EEF1BF084EF1BF0080E7EEC9D
:1037200022F0F4EC21F00009D8A499EF1BF09BEFF4
:103730001BF091EF1BF00F0E7EEC22F0F4EC21F069
:103740000009D8A4A6EF1BF0A8EF1BF09EEF1BF01A
:10375000010E7EEC22F0F4EC21F00009D8A4B3EFC6
:103760001BF0B5EF1BF0ABEF1BF0040E7EEC22F06C
:10377000F4EC21F00009D8A4C0EF1BF0C2EF1BF05D
:10378000B8EF1BF0800ED1EC21F0120006009EACC9
:10379000CCEF1BF0CEEF1BF0FEEF1BF055EC23F04F
:1037A0004DBEDFEF1BF04D5007E1470E4C5CD8B02B
:1037B000DCEF1BF0DFEF1BF0010EE0EF1BF0000E63
:1037C0000001FC6FFD6B55EC23F04DBEF5EF1BF0D7
:1037D0004D5007E1330E4C5CD8B0F1EF1BF0F5EF24
:1037E0001BF0506A502AF6EF1BF0506A50465046C4
:1037F00082505018FB0B5018826E9E9CF2A003EF73
:103800001CF005EF1CF032EF1CF081B80AEF1CF041
:103810000CEF1CF010EF1CF0000E526E010E516EFA
:1038200081BA15EF1CF017EF1CF01BEF1CF0000E17
:10383000526E020E516E81BC20EF1CF022EF1CF084
:1038400026EF1CF0000E526E030E516E81BE2BEF60
:103850001CF02DEF1CF031EF1CF0000E526E040E28
:10386000516EF29053921100000162516311D8B46D
:103870003CEF1CF03EEF1CF047EF1CF0625163116F
:10388000D8A445EF1CF047EF1CF04CEF1CF0605142
:1038900020EC24F099EF1CF020EE04F06251D926C0
:1038A0006351DA22DE50DE10D8B459EF1CF05BEF22
:1038B0001CF076EF1CF020EE04F06251D926635123
:1038C000DA2210EE02F06251E1266351E222DE506C
:1038D000E65CE650800A686FDE50800A6859D8B00E
:1038E00074EF1CF076EF1CF099EF1CF020EE02F064
:1038F0006251D9266351DA22DECF64F0DDCF65F064
:1039000062C0D9FF63C0DAFFDECF66F0DDCF67F0BB
:1039100064516625D96E65516721DA6E60C0DFFF9C
:1039200020EE02F06251D9266351DA22DE2A000E1F
:10393000DD2212000001FAA1A0EF1CF0A2EF1CF0A2
:10394000ACEF1CF072C069F073C06AF070C06BF02D
:1039500071C06CF089EC21F0000175BFB2EF1CF072
:10396000B4EF1CF0BAEF1CF074C079F075C07AF0B7
:10397000BEEF1CF0000E7A6F000E796F000E786FAC
:10398000000E776FD1EF1CF0000E616F200E606F9C
:1039900070C062F071C063F034EC1CF00001774B32
:1039A000782B7951775D7851800A766F7A51800A49
:1039B0007659D8A0DEEF1CF0E0EF1CF0C4EF1CF04D
:1039C000FAB1E5EF1CF0E7EF1CF0F1EF1CF072C06C
:1039D00069F073C06AF070C06BF071C06CF089EC74
:1039E00021F072C060F073C061F0FEEC22F00001C3
:1039F00079516025706F7A516121716F1200000E4C
:103A00000001656F63BF09EF1DF007EF1DF00FEFB9
:103A10001DF0626D631FD8B0632B010E656F61BF2F
:103A200016EF1DF014EF1DF01CEF1DF0606D611F0F
:103A3000D8B0612B010E651B000E676F000E666F1C
:103A400062516311D8B427EF1DF029EF1DF051EF3B
:103A50001DF0010E646F31EF1DF0D89062376337AF
:103A6000642B63AF36EF1DF038EF1DF02DEF1DF026
:103A7000D890663767376251605D63516159D8A04D
:103A800044EF1DF046EF1DF04BEF1DF06251605FFB
:103A90006351615B6681D89063336233642F38EF82
:103AA0001DF06551D8B457EF1DF059EF1DF05DEFD3
:103AB0001DF0666D671FD8B0672B66C060F067C0E9
:103AC00061F01200000E066E04BE6BEF1DF069EF90
:103AD0001DF071EF1DF0036C041ED8B0042A010E16
:103AE000066E02BE78EF1DF076EF1DF07EEF1DF042
:103AF000016C021ED8B0022A010E061A000E086ED2
:103B0000000E076E03500410D8B489EF1DF08BEF40
:103B10001DF0B3EF1DF0010E056E93EF1DF0D89070
:103B200003360436052A04AE98EF1DF09AEF1DF017
:103B30008FEF1DF0D890073608360350015C045013
:103B40000258D8A0A6EF1DF0A8EF1DF0ADEF1DF0B4
:103B50000350015E0450025A0780D89004320332A9
:103B6000052E9AEF1DF00650D8B4B9EF1DF0BBEF4B
:103B70001DF0BFEF1DF0076C081ED8B0082A07C063
:103B800001F008C002F01200000E0001846F000E68
:103B9000836F14EF1EF0C28265EC12F00001826F99
:103BA0008251D8B4D6EF1DF0D8EF1DF014EF1EF0FF
:103BB0008351C60F7EEC22F0000182515CEC22F0B2
:103BC000060E00017C6F130E7B6FAD0EE82EFED744
:103BD0007B2FFCD77C2FFAD700D000018351C60F72
:103BE0007EEC22F02A0E5CEC22F07D0E0001832593
:103BF000D96E000E8421DA6E82C0DFFF834B842BE6
:103C0000040E83198411D8A408EF1EF00AEF1EF0E9
:103C100014EF1EF079C060F07AC061F07D0E626F23
:103C2000000E636FC1EC22F0000184BF21EF1EF093
:103C3000845109E1040E835DD8A021EF1EF023EF2B
:103C40001EF0CBEF1DF0120052EF1EF0FFBF31EF60
:103C50001EF0FF5108E1FE05D8A031EF1EF033EF52
:103C60001EF069EF1EF0FF0E6A25626FFF0E6B21DA
:103C7000636F3FEC21F0000E00016B6F010E6A6F65
:103C80006DEF1EF0FFBF4EEF1EF0FF5109E1020E77
:103C9000FE5DD8A04EEF1EF050EF1EF069EF1EF053
:103CA00033EF1EF06AC06CF06BC06DF000016D5117
:103CB000000AD8B45EEF1EF069EF1EF06C51010AE5
:103CC000D8B426EF1EF0030AD8B442EF1EF069EF15
:103CD0001EF0000E6B6F000E6A6F1200000E0001E6
:103CE0006C6FA7EF1EF06D0E616F000E626F6CC0FF
:103CF00063F064EC21F068C060F069C061F06D0EA3
:103D00000001626F000E636F6DEC1FF000016051E7
:103D10006111D8A48EEF1EF090EF1EF0A5EF1EF0FB
:103D20006D0E606F000E616F6AC062F06BC063F071
:103D3000C1EC22F06D0E0001626F000E636F6CC06B
:103D400064F0CCEC20F0AFEF1EF0060E6C27C70E2F
:103D50006C65ADEF1EF0AFEF1EF073EF1EF01200BA
:103D600020EEEAF010EE67F0050EDBCFE3FFE80689
:103D7000FCE220EEE4F010EE6DF0050EDBCFE3FF89
:103D8000E806FCE220EEDEF010EE73F0050EDBCF6D
:103D9000E3FFE806FCE219EC21F000016151621139
:103DA000D8A4D5EF1EF0D7EF1EF0F1EF1EF0670E8E
:103DB000626F000E636F000E646FCCEC20F06D0E2E
:103DC0000001626F000E636F060E646FCCEC20F092
:103DD000730E0001626F000E636F0C0E646FCCEC0B
:103DE00020F01200BFEC23F0B0EC1EF0A7EC23F0A3
:103DF000030E0001DC6F8A0EDB6F550EE82EFED736
:103E0000DB2FFCD7DC2FFAD700D0A5EC1FF065EC38
:103E100012F00001DD6FD6EC23F0DCEC1FF00001A6
:103E2000DD51D8B416EF1FF018EF1FF0F8EF1EF0B9
:103E3000230EDD19D8A41FEF1FF021EF1FF023EF91
:103E40001FF0D2EC1AF02A0E0001DD19D8A42BEFD6
:103E50001FF02DEF1FF0F8EF1EF030EC18F0F8EF28
:103E60001EF007EF00F054EF1FF0F4EC21F0000912
:103E7000D8A43DEF1FF03FEF1FF035EF1FF061C0FA
:103E8000F6FF62C0F7FFF86A070EF76403D0080078
:103E9000F55005D0F6CFE1FFF7CFE2FFE7505CEC3D
:103EA00022F00001614B622B61C0F6FF62C0F7FF98
:103EB000F86A070EF76403D00800F55005D0F6CF76
:103EC000E1FFF7CFE2FFE7500009D8A46AEF1FF047
:103ED0006CEF1FF035EF1FF0120074EF1FF00001C0
:103EE000604B612B624B632B62C0D9FF63C0DAFF6A
:103EF00060C0E1FF61C0E2FFDE50E618D8A483EFA6
:103F00001FF085EF1FF091EF1FF060C0D9FF61C077
:103F1000DAFFDF50D8A48FEF1FF091EF1FF06FEFA3
:103F20001FF060C0D9FF61C0DAFFDF500001646F8D
:103F300062C0D9FF63C0DAFFDF50656F6551645D11
:103F4000606F616BD8A0610712000001FC51FD1188
:103F5000D8B4ADEF1FF0AFEF1FF0BAEF1FF0C80EEF
:103F6000606F300E8DEC23F0C90E0001606F300ED3
:103F70008DEC23F0C80E11EC24F00001626FD00E1E
:103F80006227623B6247624782506219BF0B621927
:103F9000826EC90E11EC24F00001626FD00E622710
:103FA00062336233825062197F0B6219826E000E97
:103FB000FD6F000EFC6F12001BEC23F0ABC0D9F0BC
:103FC000ACC0DAF0D6EC23F0830E7EEC22F0C50E06
:103FD0000001B76F000EB86F500EB96F080EBA6FC0
:103FE000D9C0BBF0DAC0BCF0A3EC20F0C50E0001D4
:103FF000616F000E626F33EC1FF0C00E7EEC22F09A
:104000008D0E0001616F080E626F33EC1FF0CC0E55
:104010007EEC22F0920E0001616F080E626F33ECAD
:104020001FF01200B1C0B5F0B2C0B6F0000E000132
:10403000F56F000EF46F30EF20F0AFC09FF0B0C00E
:10404000A0F0B50EA16F000EA26FB3C0A3F0B4C074
:10405000A4F050EC13F000019F51F427A051F52378
:10406000B5C0F6FFB6C0F7FF0800F5500009D8A4A8
:104070003CEF20F03EEF20F01DEF20F0F4C0AFF059
:10408000F5C0B0F01200000E0001686F6AEF20F07A
:10409000690E616F000E626F68C063F064EC21F01E
:1040A00066C060F067C061F0690E0001626F000ECB
:1040B000636F6DEC1FF0000160516111D8A463EFD4
:1040C00020F065EF20F068EF20F06E5173EF20F0E4
:1040D000060E6827C70E686570EF20F072EF20F0BB
:1040E00048EF20F0300E1200100EF66E480EF76EFC
:1040F000000EF86E00EEDEF010EE12F00900F5CFC3
:10410000EEFFE550E150FAE13E0EF66E480EF76E16
:10411000000EF86E0900F5CF51F00900F5CF52F00E
:1041200001EE00F0200EEE6AE806FDE100EEF0F090
:10413000100EEE6AE806FDE153905392000EF86E01
:104140000001F2EF1EF0BB0E0001BD6F000EBE6F4E
:10415000B7C0BFF0B8C0C0F0000EC26F000EC16F94
:10416000000EC46F000EC36FBF0EAF6F000EB06FB6
:10417000B9C0B1F0BAC0B2F0BD0EB36F000EB46FEB
:1041800012EC20F00001C151B725D96EC251B821FF
:10419000DA6E000EDF6E120064C065F0000E0001E2
:1041A000666F65C060F066516225D96E000E6321AE
:1041B000DA6EDF508DEC23F00001652B662B040EC8
:1041C0006665E5EF20F0E7EF20F0D1EF20F065C065
:1041D00060F020EE05F06251D9266351DA22DF50FB
:1041E0008DEC23F01200C80E0001636F0CEF21F07C
:1041F000635111EC24F0FF0AD8B401EF21F003EF72
:1042000021F00AEF21F0000E0001626F010E616FD4
:1042100018EF21F00001632B6329D8A412EF21F0DD
:1042200014EF21F0F8EF20F0000E626F000E616FC6
:104230001200000E0001636F32EF21F0635111ECA8
:1042400024F0FF0AD8B427EF21F029EF21F030EF56
:1042500021F0000E0001626F010E616F3EEF21F050
:104260000001632BC70E636538EF21F03AEF21F0B0
:104270001EEF21F0000E626F000E616F1200D00E73
:104280000001646FFF0E656F6251C80F11EC24F0DE
:104290000001666F676B645166276551672366513D
:1042A0006711D8B456EF21F059EF21F0010E5AEF03
:1042B00021F0000E686F696B6251C80F606F685122
:1042C000300F8DEC23F0120063C064F0000E00018B
:1042D000656F65516125D96E000E6221DA6E6451F9
:1042E00011EC24F0DF6E0001642B652B040E656574
:1042F0007CEF21F07EEF21F069EF21F020EE05F058
:104300006151D9266251DA22645111EC24F0DF6E3A
:104310001200000E00016F6F000E6E6F9CEF21F017
:104320006DC060F0616B6BC062F06CC063F034EC28
:104330001CF000016E4B6F2B6E516925D96E6F51C9
:104340006A21DA6EDF506D6F6D51D8A4AAEF21F0AB
:10435000ACEF21F090EF21F01200000E0001741B71
:10436000000E751B000E761B800E771B70C060F070
:1043700071C061F072C062F073C063F074C064F029
:1043800075C065F076C066F077C067F050EC04F059
:1043900060C070F061C071F062C072F063C073F011
:1043A00012000001606F0F0E95160F0E83160001AC
:1043B00060518009F00B83128D948D901AEC24F0DB
:1043C0008D821AEC24F08D920F0E83160001603955
:1043D000F00BF00B83121AEC24F08D821AEC24F00F
:1043E0008D92F00E951212008D848D901AEC24F0AF
:1043F0008D821AEC24F083AE00EF22F002EF22F05F
:104400000DEF22F08D921AEC24F08D821AEC24F03C
:104410008D928D94010E16EF22F08D921AEC24F0FD
:104420008D821AEC24F08D928D94000E1200000EF5
:10443000151A000E161A000E171A800E181A11C03F
:1044400001F012C002F013C003F014C004F015C054
:1044500005F016C006F017C007F018C008F0B1EC60
:1044600006F001C011F002C012F003C013F004C046
:1044700014F01200000E0001646F000E636F4CEF29
:1044800022F0070E0001626F7D0EE82EFED7622F2C
:10449000FCD70001634B642B6051635D6451800A5B
:1044A000626F6151800A6259D8A059EF22F05BEF28
:1044B00022F041EF22F012000001606F0F0E9516FE
:1044C0000F0E831600016051F00B83128D808D94C6
:1044D0001AEC24F08D821AEC24F08D920F0E8316C4
:1044E00000016039F00BF00B83121AEC24F08D827E
:1044F0001AEC24F08D92F00E951212000001606FFC
:104500000F0E95160F0E831600016051F00B8312EB
:104510008D948D901AEC24F08D821AEC24F08D92FB
:104520000F0E831600016039F00BF00B83121AECAA
:1045300024F08D821AEC24F08D92F00E9512120068
:10454000000173BFAEEF22F0735106E17205D8B0DF
:10455000ACEF22F0AEEF22F0BCEF22F072C074F0AC
:1045600073C075F0741F751F744B752B74C072F097
:1045700075C073F0C0EF22F072C072F073C073F0B8
:10458000120062C064F063C065F060C066F061C094
:1045900067F064C0D9FF65C0DAFF0001644B652B8A
:1045A00066C0E1FF67C0E2FF664B672BDFCFE7FF26
:1045B000E750D8A4DEEF22F0E0EF22F0C9EF22F0BE
:1045C0001200D00E0001626FFF0E636F60C064F0D6
:1045D00061C065F0625164276351652365510AE14A
:1045E0000A0E645DD8A0F7EF22F0FAEF22F0010E78
:1045F000FBEF22F0000E606F616B120060C062F092
:1046000061C063F007EF23F00001604B612B60C0D5
:10461000D9FF61C0DAFFDF50D8A411EF23F013EF08
:1046200023F004EF23F000016251605D606F63517D
:104630006159616F1200C282C2B221EF23F023EFF1
:1046400023F01CEF23F0C4500001AE6FAD6BC350DC
:10465000AD25606F000EAE21616F000E636F0A0E14
:10466000626FFFEC1CF060C0ABF061C0ACF01200F8
:1046700000016051611162116311D8B442EF23F05F
:1046800044EF23F04CEF23F0000E601B000E611B83
:10469000000E621B800E631B60C060F061C061F0A1
:1046A00062C062F063C063F01200C282C2B25BEF0C
:1046B00023F05DEF23F056EF23F0C4504F6E4E6AA7
:1046C000C3504E24016E000E4F20026E000E046E89
:1046D0000A0E036E62EC1DF001C04CF002C04DF0FA
:1046E00012000150021003100410D8B47AEF23F026
:1046F0007CEF23F084EF23F0000E011A000E021A63
:10470000000E031A800E041A01C001F002C002F06C
:1047100003C003F004C004F012000001616F60C028
:10472000A9FF61C0A8FFA69EA69CA684F29E550E76
:10473000A76EAA0EA76EA682A1A8A1EF23F0A3EFF1
:1047400023F09CEF23F0F28EA198A6941200F3ECD4
:1047500020F0000161516211D8A4B1EF23F0B3EF52
:1047600023F0BEEF23F0C80E606F300E8DEC23F007
:10477000C90E0001606F300E8DEC23F01200949C86
:10478000949E9494F00E936E9280F19E0D0EC16EE5
:10479000010EC26E950EC06E280E4DEC1BF0D08E31
:1047A000F28E9D8C9F8CF286F2901200010E7EECB0
:1047B00022F0410E0001616FEE0EE82EFED7612F50
:1047C000FCD700F0800E7EEC22F012001A0E0001E1
:1047D000616F5E0E606F6E0EE82EFED7602FFCD705
:1047E000612FFAD700F01200210E0001606F760EE3
:1047F000E82EFED7602FFCD700F01200620E0001F9
:10480000606F650EE82EFED7602FFCD700D0120037
:1048100039383736003335363738003231323334B1
:1048200000310001606F60C0A9FFA69EA69CA68013
:10483000A8501200210EE82EFED700F01200FFFF54
:02484000120064
:020000040020DA
:08000000FFFFFFFFFFFFFFFF00
:020000040030CA
:0E000000000C191EFF8080FF0FC00FE00F40A4
:00000001FF
